:100000000C9482030C94AA030C94AA030C94AA03E4
:100010000C94AA030C94AA030C94AA030C94AA03AC
:100020000C94AA030C94AA030C94180A0C94870A43
:100030000C94AA030C94AA030C94AA030C94AA038C
:100040000C94AA030C94AA030C94AA030C94AA037C
:100050000C94AA030C94AA030C94AA030C94B90C54
:100060000C94AA030C94AA030C94AA030C94AA035C
:100070000C94AA030C94AA030C94AA030C94AA034C
:100080000C94030D0C94AA030C94AA030C94AA03D9
:100090000C94AA030C94AA030C94AA030C94AA032C
:1000A0000C94AA030C94AA030C94AA030000000069
:1000B000003E5B4F5B3E3E6B4F6B3E1C3E7C3E1CEE
:1000C000183C7E3C181C577D571C1C5E7F5E1C0034
:1000D000183C1800FFE7C3E7FF0018241800FFE7EB
:1000E000DBE7FF30483A060E2629792926407F05AE
:1000F0000507407F05253F5A3CE73C5A7F3E1C1CC4
:1001000008081C1C3E7F14227F22145F5F005F5F83
:1001100006097F017F006689956A6060606060946F
:10012000A2FFA29408047E040810207E2010080874
:100130002A1C08081C2A08081E101010100C1E0C7F
:100140001E0C30383E3830060E3E0E060000000011
:100150000000005F00000007000700147F147F14F8
:10016000242A7F2A1223130864623649562050003D
:1001700008070300001C2241000041221C002A1C29
:100180007F1C2A08083E0808008070300008080814
:100190000808000060600020100804023E51494534
:1001A0003E00427F400072494949462141494D3352
:1001B0001814127F1027454545393C4A49493141B9
:1001C000211109073649494936464949291E000087
:1001D00014000000403400000008142241141414DC
:1001E0001414004122140802015909063E415D59C8
:1001F0004E7C1211127C7F494949363E41414122D1
:100200007F4141413E7F494949417F090909013EFA
:10021000414151737F0808087F00417F4100204021
:10022000413F017F081422417F404040407F021C33
:10023000027F7F0408107F3E4141413E7F0909094A
:10024000063E4151215E7F09192946264949493216
:1002500003017F01033F4040403F1F2040201F3FDC
:100260004038403F63140814630304780403615961
:10027000494D43007F4141410204081020004141A3
:10028000417F04020102044040404040000307084F
:100290000020545478407F2844443838444444284B
:1002A000384444287F385454541800087E090218F2
:1002B000A4A49C787F0804047800447D400020407A
:1002C000403D007F1028440000417F40007C0478BE
:1002D00004787C080404783844444438FC18242406
:1002E0001818242418FC7C08040408485454542486
:1002F00004043F44243C4040207C1C2040201C3C03
:100300004030403C44281028444C9090907C4464F9
:10031000544C44000836410000007700000041368C
:10032000080002010204023C2623263C1EA1A16112
:10033000123A4040207A3854545559215555794144
:100340002154547841215554784020545579400C1B
:100350001E527212395555555939545454593955FC
:100360005454580000457C410002457D420001453F
:100370007C40F0292429F0F0282528F07C545545AC
:10038000002054547C547C0A097F4932494949323F
:100390003248484832324A4848303A4141217A3A54
:1003A00042402078009DA0A07D39444444393D401E
:1003B00040403D3C24FF2424487E4943662B2FFCCB
:1003C0002F2BFF0929F620C0887E09032054547979
:1003D000410000447D413048484A32384040227A4A
:1003E000007A0A0A727D0D19317D2629292F2826C7
:1003F0002929292630484D402038080808080808CF
:100400000808382F10C8ACBA2F102834FA00007B27
:10041000000008142A142222142A1408950022002D
:1004200095AA005500AAAA55AA55AA000000FF00E7
:10043000101010FF00141414FF001010FF00FF1024
:1004400010F010F0141414FC001414F700FF000056
:10045000FF00FF1414F404FC141417101F10101FD5
:10046000101F1414141F00101010F0000000001FC3
:10047000101010101F10101010F010000000FF10CE
:100480001010101010101010FF10000000FF1400CA
:1004900000FF00FF00001F10170000FC04F41414FC
:1004A0001710171414F404F40000FF00F7141414C8
:1004B00014141414F700F7141414171410101F1048
:1004C0001F141414F4141010F010F000001F101F6B
:1004D0000000001F14000000FC140000F010F010D9
:1004E00010FF10FF141414FF141010101F00000050
:1004F00000F010FFFFFFFFFFF0F0F0F0F0FFFFFF54
:100500000000000000FFFF0F0F0F0F0F38444438AA
:10051000447C2A2A3E147E02020606027E027E02E5
:1005200063554941633844443C04407E201E200604
:10053000027E020299A5E7A5991C2A492A1C4C7241
:1005400001724C304A4D4D303048784830BC625AC8
:10055000463D3E494949007E0101017E2A2A2A2A58
:100560002A44445F444440514A444040444A514034
:100570000000FF0103E080FF000008086B6B0836F5
:1005800012362436060F090F060000181800000066
:100590001010003040FF0101001F01011E00191D55
:1005A0001712003C3C3C3C0000000000F0F89C8E20
:1005B0008783878E9CF8F00000FEFF03030303038C
:1005C000070EFCF80000FEFF0303030303070EFC05
:1005D000F80000FFFF00000000000000FFFF000027
:1005E000FEFF8383838383C7EE7C380000F8FC0E14
:1005F00007030303070EFCF800003F7FE0C0808084
:10060000C0E07F3FFFFF01010101010101FFFF0089
:1006100000FFFF0C0C0C0C1C3E77E3C100007FFFB9
:10062000C0C0C0C0C0E0703F1F00001F3F70E0C0EE
:10063000C0C0E0703F1F00007FFFC1C1C1C1C1E366
:10064000773E1C00001F3F70E0C0C0C0E0703F1F3D
:10065000000000000001FFFF01000000D5F08D1434
:10066000A1C881CFD9F1AF200093823C00000002E5
:1006700000F780220000807D861B0000000200DD64
:10068000841C0000000200DD841F00000002007DC9
:10069000861B000080080B00020202000009040013
:1006A00000010202000005240010010524010101DF
:1006B00004240206052406000107058103100040FA
:1006C00009040100020A00000007050202400000C0
:1006D000070583024000000403090412010002EF31
:1006E000020140412336800001010203014172648E
:1006F00075696E6F204C4C430041726475626F796E
:1007000000007D0D11241FBECFEFDAE0DEBFCDBFAC
:1007100015E0A0E0B1E0EEE5F5E202C005900D9233
:10072000A83CB107D9F72AE0A8ECB5E001C01D92BA
:10073000AF36B207E1F713E0C2E8D3E004C0219777
:10074000FE010E949312C138D107C9F70E94AA0D79
:100750000C94AD120C9400008091DC050895EBE040
:10076000F6E0A0E0B8E000800EBC8111012C1197EA
:10077000A0FDFDCF0192B9F70DB40895FC01809161
:100780000A06882311F13FB7F89482E08093E900CC
:100790002091F200822F90E01816190614F481E0DF
:1007A00090E0882339F0289844E640930906409168
:1007B000F1004083222339F02091F200211103C07F
:1007C0002BE62093E8003FBF08958FEF9FEF089539
:1007D0002FB7F89483E08093E9009091E800892F87
:1007E000807295FF04C09091F20080E4891B2FBFB6
:1007F00008958091010681110DC082E08093FD056E
:1008000084E08093FE05109200061092FF0581E0BF
:10081000809301068DEF95E00895CF93DF931F92AB
:10082000CDB7DEB76983DC01ED91FC910280F381E5
:10083000E02D41E050E0BE016F5F7F4F09950F90C2
:10084000DF91CF91089583E08093E9008091F200D9
:10085000882319F08AE38093E80008950E94E80352
:1008600090E00895CF93DF931F92CDB7DEB7FC01E0
:100870008485958597FD08C02FEF3FEF3587248746
:100880000F90DF91CF910895CE0101960E94BE0393
:10089000019719F4898190E0F3CF8FEF9FEFF0CFAC
:1008A0000F931F93CF93DF931F92CDB7DEB78C01C9
:1008B000FC018485958597FF0BC0CE0101960E94AF
:1008C000BE03019771F4898190E0F80195878487D0
:1008D000F801848595850F90DF91CF911F910F913D
:1008E00008958FEF9FEFF1CFFC018485958597FDEB
:1008F0000BC09FB7F89482E08093E9008091F200EA
:100900009FBF90E0019608959FB7F89482E080938E
:10091000E9008091F2009FBF90E008954091F705B3
:100920005091F8052091F5053091F60542175307CF
:10093000B4F49091E8009570E1F39091E80092FD95
:1009400019C08093F1008091F7059091F805019608
:100950008F739927892B19F48EEF8093E80080918B
:10096000F7059091F80501969093F8058093F705A7
:1009700081E0089580E00895DF92EF92FF920F9357
:100980001F93CF93DF93D82E8A01EB017B01E40EF6
:10099000F51ECE15DF0559F0D7FE12C0FE01849179
:1009A0000E948E0421968111F4CF0FEF1FEFC80132
:1009B000DF91CF911F910F91FF90EF90DF900895FD
:1009C0008881EECF0F931F93CF93DF931F92CDB704
:1009D000DEB782E0898342E450E065E976E080E8B2
:1009E0000E94BC040E94F903DC0112960D911C9137
:1009F0000115110589F0D801ED91FC910280F38178
:100A0000E02DBE016F5F7F4FC801099597FD04C0BF
:100A1000F80100851185ECCF89810F90DF91CF918E
:100A20001F910F910895615030F02091F100FC0169
:100A300020830196F8CF289884E6809309060895CC
:100A4000AF92BF92CF92DF92EF92FF920F931F93DC
:100A5000CF93DF936C017B018B01040F151FEB011A
:100A60005E01AE18BF08C017D10759F06991D601D1
:100A7000ED91FC910190F081E02DC6010995892B43
:100A800079F7C501DF91CF911F910F91FF90EF9002
:100A9000DF90CF90BF90AF900895FC010E94E405D5
:100AA000319728F068517C4F8F4F9F4FF9CFAB01A2
:100AB000FC010E94E405641775078E079F07C8F3C1
:100AC00008958F929F92AF92BF92CF92DF92EF9252
:100AD000FF920F931F93CF93DF936C017B018A01E9
:100AE00080911801882309F45AC080910A0688234E
:100AF00009F455C08091FC0580FF05C08091E0009D
:100B000082608093E000E801B12C8AEFA82E93E088
:100B1000892E2AE3922E209711F4BB20C9F10E945E
:100B2000E803811108C0AA94AA20C9F181E090E0ED
:100B30000E944D05F0CF8C171D0611F00CF08C2F84
:100B40009FB7F8948092E9002091E80025FD02C04B
:100B50009FBFE1CF282F30E0C21BD30BF70181509C
:100B600020F041914093F100FACFE20EF31EBB203A
:100B700021F09092E800B12CEBCF8091E80085FD48
:100B8000E7CF9092E800BB24B394209709F3F3CF0A
:100B90005D9884E68093FB05101611063CF081E019
:100BA00090E0F6019383828310E000E0C801DF91BA
:100BB000CF911F910F91FF90EF90DF90CF90BF905A
:100BC000AF909F908F900895A8EDB5E02FB7F8945F
:100BD0007D918D919C9166B52FBFA89B05C06F3FFD
:100BE00018F47F5F8F4F9F4F22E0660F771F881F9B
:100BF000991F2A95D1F708952091CF05E091CD0551
:100C0000F091CE05CF0102969093CE058093CD054D
:100C1000222319F0859194910895808191810895FE
:100C2000CF92DF92EF92FF92CF93DF930E94FC0569
:100C3000811520E8920791F4809171008D7F809357
:100C4000710010929100469847981092CC05DF9160
:100C5000CF91FF90EF90DF90CF90089521E0209307
:100C6000CC05813020E8920751F48091CA0590911B
:100C7000CB059093CE058093CD050E94FC0597FD92
:100C800005C02091C905222309F454C02091C8054C
:100C9000211150C021E02093D005EC01DF7720978F
:100CA00009F04BC081E08093D10546983FE9C32EFF
:100CB0003FE0D32EE12CF12CCAEFD0E0E091690A9D
:100CC000F0916A0A0995811103C081E08093D105F2
:100CD0008091D005882329F08091D105882309F4DB
:100CE0003FC047980E94FC050097F1F19C01DE018E
:100CF0000E947012DC01CB0129E0B595A79597956C
:100D000087952A95D1F7109290002AE020939100C0
:100D1000D0929900C09298008093D2059093D30509
:100D2000A093D405B093D505809171008260809323
:100D300071008DCF1092D005B0CF9E0150E040E001
:100D400060E472E48FE090E00E942F1269017A0162
:100D500081E0C81AD108E108F1081092D105AECFA0
:100D60004699BFCF479ABECF8FEF9FEFDC01CBCF25
:100D70009C01E1E7F0E090819D7F908381E080938A
:100D8000CF053093CE052093CD053093CB0520932E
:100D9000CA050C94100690E00C944D058FB1809517
:100DA000807F669B88601C9B846008953E9A3F9A72
:100DB00081E08093DC0508959091EA05982329F459
:100DC0009091EB05982381E009F480E0089580E09C
:100DD0000C94AF0380389105B8F460347105A0F429
:100DE00090E121E061FD24E060FD220F62FD22958B
:100DF000687F969FD0011124A80FA55FB94F0C9072
:100E0000022A40FF02260C920895CF93DF93EFE071
:100E1000F6E09DE0915059F4EFE8F6E09DE0915046
:100E200061F08191DF01119780688C93F8CF8191F7
:100E3000DF01119780618C93EDCFC4E0D0E041E0F9
:100E4000BE0184E090E00E94EA062196C031D105FF
:100E5000B1F7C4E0D0E041E0BE018FE090E00E9435
:100E6000EA062196C031D105B1F7DF91CF910895FF
:100E70002F923F924F925F926F927F928F929F92AA
:100E8000AF92BF92CF92DF92EF92FF920F931F9398
:100E9000CF93DF93EC018B017A016901C61AD70A5F
:100EA000D7FE03C0D194C194D10847018C1A9D0A82
:100EB00097FE03C09194819491088C149D0454F47E
:100EC0009E2D8F2D7901292F382F9C2F8D2FE801F2
:100ED000092F182FEC16FD0654F4902F812F89014D
:100EE000292F382F9C2F8D2FE701E92EF82E17017F
:100EF0002C1A3D0A2901401A510A57FE03C0519489
:100F000041945108310137FE03C08FEF681A780A07
:100F1000759467948FEF021713070CF481E0A82EE5
:100F2000880FBB08EC16FD06A4F041E0BE01C80125
:100F30008C149D0414F0B801CE010E94EA066418D6
:100F4000750877FE04C00A0D1B1D620C731C2196E8
:100F5000E9CFDF91CF911F910F91FF90EF90DF903C
:100F6000CF90BF90AF909F908F907F906F905F9049
:100F70004F903F902F9008958F929F92AF92BF9283
:100F8000CF92DF92EF92FF920F931F93CF93DF9355
:100F90006D3009F458C06A3009F445C08091DD0510
:100FA000811139C0C090E805D090E9050091E605AF
:100FB0001091E70585E0689FE0011124C455DF4FDB
:100FC0004801F12CE5E0E12CFE1629F0CE01019656
:100FD000FE01E490EC01B12CA12C4E2D4170B60124
:100FE0006A0D7B1DC4010E94EA06E694FFEFAF1A6A
:100FF000BF0A88E0A816B10481F7F394EFEF8E1AC8
:101000009E0AF6E0FF12DECF0A5F1F4F1093E7053E
:101010000093E60518C08091E6059091E7058C37AE
:1010200091050CF4BFCF1092E7051092E605809170
:10103000E8059091E90508969093E9058093E80505
:101040006A3009F0AFCF81E090E0DF91CF911F913E
:101050000F91FF90EF90DF90CF90BF90AF909F9057
:101060008F9008958231910508F04CC0FC01E55C39
:10107000F74F0C9493124D08670883089808AD0841
:101080008208C208D7088208F10806091B098208ED
:101090003009820845095A096F098EE391E090935F
:1010A0000C0180930B0183E691E0909307018093FC
:1010B00006018EE691E0909305018093040185E797
:1010C00091E0909303018093020183E419C08BE7C0
:1010D00091E090930C0180930B0183EA91E090934F
:1010E0000701809306018BEA91E0909305018093BC
:1010F000040185EB91E0909303018093020181E468
:101100008093010108958DEB91E090930C01809301
:101110000B0181EE91E0909307018093060188EE28
:1011200091E0909305018093040180EF91E0C9CF95
:1011300087EF91E090930C0180930B0188E192E09E
:1011400090930701809306018FE192E0909305014F
:101150008093040186E292E0CECF8DE292E09093FC
:101160000C0180930B0181E592E09093070180933D
:1011700006018AE592E0909305018093040184E6DC
:1011800092E09FCF8CE692E090930C0180930B014C
:101190008FE892E0909307018093060185E992E041
:1011A00090930501809304018DE992E08ACF85EA4E
:1011B00092E090930C0180930B018FE293E0909367
:1011C00007018093060186E393E0909305018093E5
:1011D00004018EE393E0909303018093020182E483
:1011E0008FCF8AE493E090930C0180930B018FE200
:1011F00093E0909307018093060186E393E0909338
:101200000501809304018EE393E05BCF81EE93E0D0
:1012100090930C0180930B018CE094E09093070174
:101220008093060182E194E090930501809304018C
:1012300089E194E046CF81EE93E090930C01809396
:101240000B018FE194E0909307018093060189E2FE
:1012500094E0909305018093040182E394E04BCFE6
:1012600081EE93E090930C0180930B0188E394E06E
:10127000909307018093060180E494E09093050128
:101280008093040187E494E0A6CF8FE494E09093E8
:101290000C0180930B018CE694E0909307018093FE
:1012A00006018CE794E090930501809304018EE899
:1012B00094E091CF86E994E090930C0180930B0128
:1012C00082EB94E090930701809306018CEB94E00D
:1012D000909305018093040185EC94E0F2CE81EDBA
:1012E00094E090930C0180930B018BEE94E090932B
:1012F00007018093060188EF94E0909305018093A5
:10130000040180E095E067CF089590E080E00895C3
:101310008F929F92AF92BF920F931F93CF93DF93C1
:10132000CDB7DEB7A1970FB6F894DEBF0FBECDBF25
:1013300019A2423008F44AE08E010F5D1F4F842E3F
:10134000912CB12CA12CA50194010E944E12E62FE4
:10135000B901CA01EA3044F5E05DD801EE938D0190
:10136000232B242B252B79F790E080E0109769F050
:10137000FD0101900020E9F73197AF014A1B5B0B9B
:10138000BD018BE69AE00E942005A1960FB6F89465
:10139000DEBF0FBECDBFDF91CF911F910F91BF90E8
:1013A000AF909F908F900895E95CD7CF009769F038
:1013B000FC0101900020E9F73197AF01481B590B60
:1013C000BC018BE69AE00C94200590E080E0089543
:1013D000CF92DF92EF92FF92CF93DF936C01990F40
:1013E000EE08FF08F7FE19C06DE28BE69AE00E9456
:1013F000BC07EC0166277727CB016C197D098E09A4
:101400009F094AE00E9488098C0F9D1FDF91CF91B0
:10141000FF90EF90DF90CF9008954AE0C701B601AA
:10142000DF91CF91FF90EF90DF90CF900C948809DF
:101430001F920F920FB60F9211248F939F9380915A
:10144000E1009091E100937F9093E10083FF0FC052
:101450001092E90091E09093EB001092EC0092E37F
:101460009093ED0010920A0698E09093F00082FFAE
:1014700022C093E09093E9009091F200992319F033
:101480009AE39093E8009091FB05992341F09091A5
:10149000FB0591509093FB05911101C05D9A9091CD
:1014A0000906992341F090910906915090930906FD
:1014B000911101C0289A84FF18C08091E2008E7EAD
:1014C00081608093E2008091E1008F7E8093E10053
:1014D0008091FC058E7E80618093FC059F918F91A9
:1014E0000F900FBE0F901F90189580FFF7CF80913F
:1014F000E2008E7E80618093E2008091E1008E7E2A
:101500008093E1008091FC058E7E8160E5CF1F9283
:101510000F920FB60F921124CF92DF92EF92FF92AB
:101520000F931F932F933F934F935F936F937F93EB
:101530008F939F93AF93BF93EF93FF93CF93DF93DB
:10154000CDB7DEB76C97DEBFCDBF1092E9008091BA
:10155000E80083FF25C068E0CE0145960E94130590
:1015600082EF8093E8008D8987FF39C09091E80071
:1015700090FFFCCF982F907609F034C19E894F8957
:10158000588D2F89F88C911131C0803861F5809188
:10159000FA058093F1001092F1008EEF8093E8003D
:1015A0006C960FB6F894DEBF0FBECDBFDF91CF9122
:1015B000FF91EF91BF91AF919F918F917F916F912B
:1015C0005F914F913F912F911F910F91FF90EF905D
:1015D000DF90CF900F900FBE0F901F9018959EEF49
:1015E0009093E800C7CF1092F100D5CF913059F415
:1015F0008111D3CF4130510581F68091FA058D7F5D
:101600008093FA05CACF933049F48111C6CF413097
:10161000510519F68091FA058260F2CF953041F4B8
:101620008091E80080FFFCCF20682093E300B5CFD5
:10163000963009F0A9C00B8D1C8D22E01092E900B4
:101640001092F8051092F705F2122EC01092F605CE
:101650001092F5050E94E2041F8299E09983FA82B4
:1016600091E09E8390EA98879AEF99872091F705F9
:101670003091F805275F3F4F3C832B838D83109279
:10168000E9001092F8051092F7051093F605009303
:10169000F50549E050E0BE016F5F7F4F80E00E949A
:1016A000BC040E94E20479CF1093F6050093F5057F
:1016B0000E94F903DC0112960D911C910115110590
:1016C00009F451C1D801ED91FC910480F581E02D20
:1016D000BE016B5E7F4FC8010995009709F03EC1BE
:1016E000F80100851185EACFF3E0FF120EC08F8963
:1016F000882309F440C0823061F440E867E089EF54
:1017000096E00E944A0D811148CF81E28093EB0060
:1017100047CF813029F440E86BE08DEE96E0F1CFC1
:10172000833099F70E94F903DC011296ED90FC904A
:101730008E010F5F1F4F6801E114F10479F0D701AA
:10174000ED91FC910680F781E02DB801C701099564
:10175000080F111DF701E084F184EECFD8011C922F
:10176000F60101900020E9F73197BF016C197D095E
:1017700040E0C601C6CF67ED76E0FB01449150E042
:1017800080E80E94BC0409CF973009F4BECF98309E
:1017900021F481E08093F10000CF993009F0FDCE73
:1017A000837009F0B2CFEAE1F1E081E031E096E345
:1017B0002191222371F08093E9003093EB00DF0147
:1017C00011972C912093EC009093ED008F5F873060
:1017D00079F78EE78093EA001092EA008F89809370
:1017E0000A06DBCE8B8D9C8D1092E9001092F805D5
:1017F0001092F7059093F6058093F505898D811178
:1018000092C08E899D89913A49F4813209F07DCF49
:1018100047E050E061E171E080E0B3CF913209F040
:1018200074CF833269F48F89988DB0E0A0E0809303
:101830000D0190930E01A0930F01B0931001ADCE56
:10184000803269F48091E80082FFFCCF67E081E19B
:1018500091E00E9413058BEF8093E8009ECE8232C8
:1018600009F09BCE8F8980931801EEEFFFE78591F9
:1018700094918B3F9C4D51F1E0E0F8E08091110193
:1018800090911201A0911301B0911401803B9440FA
:10189000A105B105F1F48091180180FD1AC0EE3F59
:1018A0008AE0F80789F587E797E79183808380913D
:1018B00060008093F90588E19BE00FB6F894A89545
:1018C000809360000FBE9093600067CEEEEFFAE069
:1018D000D5CF808191818737974709F05ECEA89553
:1018E000809160008861809360008091F905809309
:1018F0006000EE3F2AE0F20789F08091FE0A9091A5
:10190000FF0A9183808349CE808191818737980730
:1019100051F29093FF0A8093FE0AC5CF1092FF0AFE
:101920001092FE0A3ACE0E94F903DC0112960D9144
:101930001C910115110509F4E8CED801ED91FC9137
:101940000190F081E02DBE016B5E7F4FC8010995CB
:10195000811123CEF80100851185EBCF18161906E9
:101960000CF41BCED2CEF1E0FF12BECE6BED76E0D2
:1019700004CF0F920FB68F939F93EF93FF938091B5
:10198000D7058D5F8D3708F08D578093D705E2EE30
:10199000F5E080818E4F808391819F4F918382817A
:1019A0008F4F828383818F4F8383E8EDF5E08081C1
:1019B0008F5F808381818F4F818382818F4F82836C
:1019C00083818F4F83838FB18F6066991C9B88279B
:1019D0008F3681F48091D605981B963068F0E0E050
:1019E000F8E087E78083818388E180936000F0934B
:1019F0006000FFCF9093D605FF91EF919F918F915B
:101A00000FBE0F9018951F920F920FB60F921124D0
:101A10002F933F934F935F936F937F938F939F93F6
:101A2000AF93BF93EF93FF938091D2059091D3052D
:101A3000A091D405B091D5050097A105B10539F164
:101A40002091D105211105C0369A2091D005211190
:101A5000379A0197A109B109B7FD08C08093D20553
:101A60009093D305A093D405B093D505FF91EF9142
:101A7000BF91AF919F918F917F916F915F914F91A6
:101A80003F912F910F900FBE0F901F9018950E94BD
:101A90001006ECCFEF92FF920F931F93CF93DF933B
:101AA000F82E192FE62E042F81E0860F880F0E9452
:101AB0008E0483E00E948E04CF2DD12FEC0EFD2EDC
:101AC000F11CCE15DF05B9F007FF13C0FE018491AC
:101AD0000E948E04182F80E00E948E04812321969C
:101AE0008111EFCFDF91CF911F910F91FF90EF9078
:101AF00008958881EDCF81E0F5CFEBE0FAE0138225
:101B0000128288EE93E0A0E0B0E084839583A68300
:101B1000B78384E291E0918380838FEF9FEF958775
:101B20008487EBE6FAE01382128286E391E09183E8
:101B300080838CEA93E090936A0A8093690A80E03C
:101B400090E89093680A8093670A46983E9A47986F
:101B50003F9A0895789483E084BD83E085BD81E059
:101B600080936E00E1E8F0E083E08083E0E881E0CC
:101B70008083E1E983E08083E0E981E08083E1EC38
:101B800087E08083E3EC81E08083E0EC82E0808387
:101B9000E2EC81E08083EAE787E0808380688083ED
:101BA00010920A061092FA051092FC058091D70057
:101BB00081608093D70080EA8093D80089B58061E6
:101BC00089BD89B5826089BD09B400FEFDCF81E081
:101BD00090E00E944D058091D8008F7C80618093B9
:101BE000D8008091E000807F8093E0008091E10048
:101BF0008E7E8093E1008DE08093E200559A209ADA
:101C000081EC80937C0081EF85B987EE84B984E311
:101C10008BB984EF8AB9769A6E9880EF81BB10BA3F
:101C200080E58CBD81E08DBD85E00E94CB065F9A8A
:101C300085E00E94CB065C98ECE5F6E085918EBDD0
:101C400000000DB407FEFDCFE936C1F75C9A81E8CC
:101C50008093640081E0809365000E94E7060E9403
:101C6000CE0687FF15C05C9885EA8EBD00000DB4D6
:101C700007FEFDCF5C9A2E982F982D9880916400D6
:101C800080628093640081E083BF889513BEFCCF9F
:101C90000E94CE0682FF37C02D980E94CE0684781F
:101CA0008438A1F42D9A88EC0E94CB062F986FEF10
:101CB00082E090E00E940F1284EF91E00E944D05B7
:101CC0002F9A0E94CE0684788438D9F30E94CE06DB
:101CD00084718431A1F42D9A88EC0E94CB062E9851
:101CE00060E082E090E00E940F1284EF91E00E9499
:101CF0004D052E9A0E94CE0684718431D9F388EC6A
:101D00000E94CB06C5CF2D9A82E090E00E94071278
:101D1000882309F45BC00E94D60681E090E00E940F
:101D20000712182F147081FF0AC011112E98C1EFED
:101D3000DFEF0E94CE0686FF4EC02E9A2F9A82E3D6
:101D40000E94CB060E94CE068111F9CF0E94D606D2
:101D500081E28093000181E08093DD0584E690E0DC
:101D60000E94071290E09093ED058093EC05439755
:101D700024F01092ED051092EC058091F105909100
:101D8000F2050E943208FCE24F2E512C02E010E0D6
:101D9000A0E26A2E712C5CE2C52EDD24D39466E0AD
:101DA000A62EB12C74E3872E912CE3E02E2E312C3D
:101DB000C091E005CC2309F4A8C01092E00580E0B2
:101DC00090E0892BA9F30E940000E5CF1092DC057A
:101DD0003E983F98A2CF112329F0C430D10511F4C9
:101DE0002E9A2F9881E00E94AF030C2F0770A02E2F
:101DF000AE01B3E055954795BA95E1F7CA019695BE
:101E0000982F882797958795855F994F70E060E0B8
:101E10004E3F2FEF520769F130E020E0DB01A4557F
:101E2000BA4F7C01E0E8EE0EF11CFD01E20FF31F5A
:101E3000E491F0E04F010A2C02C0880C991C0A942E
:101E4000E2F74F3F540739F06C01C20ED31EF60182
:101E5000B488B828B48AAA2039F06701C20ED31E0C
:101E6000F60104890929048B2F5F3F4F283531057E
:101E7000E1F64F5F5F4F80589F4F685A7F4F603B3E
:101E8000710531F60E94E7068FE00E94CB0621968D
:101E9000C931D10509F04DCF112311F02F9A2D989A
:101EA00080E991E00E944D052D9A81E090E00E942A
:101EB000071280FF44CF8AE090E00E9407129FEF54
:101EC000980F9E3F08F03BCF22E330E03093E705C8
:101ED0002093E60528E330E03093E9052093E805F8
:101EE000CAE0D0E0682F8BE69AE00E94BC072196FA
:101EF000CE010E940712C031D105A1F70E94E7066A
:101F000088EE93E00E944D051ACF9091E2058091F2
:101F1000E105F92FF81B8F2F20910001F21748F4EB
:101F20008F5F821708F04BCF81E083BF889513BE87
:101F300046CF81E08093E0059093E105EEEDF5E07A
:101F4000808191810196808391838091EB058093BC
:101F5000EA050E94CE068093EB05EBE0F6E0C111A6
:101F6000CFEF8FEFC193C193C193C1938150D0F74D
:101F70001092E9051092E8051092E7051092E60527
:101F80002091F3053091F4052330310509F4CAC1DD
:101F90008091F1059091F2059695982F8827979555
:101FA000879562E170E00E947F12772761157105C5
:101FB00079F06138710514F060E870E0EBE8F9E061
:101FC000615030F08191DF01119780688C93F8CFD8
:101FD0002130310551F138F02230310509F4EEC0DD
:101FE0000E94E706ECCE80910B0190910C010E94BB
:101FF000D6091092E7051092E6059092E9058092C5
:10200000E80587E095E00E94D60984E00E94DC069E
:10201000882331F3D0920A01C092090181E090E057
:102020009093F4058093F305DBCF809109019091A3
:102030000A011816190664F5019790930A01809316
:1020400009018091090190910A019695982F88279E
:1020500097958795B6010E947F12D0E0C0E07B0182
:10206000FF24CE15DF0514F541E070E060E0CE01FD
:102070000E94EA0641E061E070E0CE010E94EA06BB
:1020800041E062E070E0CE010E94EA062196E9CFCD
:1020900088E5809308011092F00587E796E00E949A
:1020A000B8061093F4050093F305CBCF1092E70523
:1020B0001092E605B092E905A092E80586E195E068
:1020C0000E94D6091092E7051092E60584E190E09F
:1020D0009093E9058093E8058091060190910701AE
:1020E0000E94D6091092E7051092E6057092E90564
:1020F0006092E80580910401909105010E94D60943
:102100001092E7051092E6055092E9054092E80525
:1021100080910201909103010E94D60980E80E94FB
:10212000DC06882359F081E48093080189E696E073
:102130000E94B8061093F4050093F30580E40E9412
:10214000DC06882359F082E48093080189E696E052
:102150000E94B8061093F4050093F30580E10E94F5
:10216000DC06882359F083E48093080189E696E031
:102170000E94B8061093F4050093F3058091F305CF
:102180009091F405029709F02BCF809108018835D2
:1021900009F426CF9091010189130DC081E080934D
:1021A000F0058091EE059091EF0501969093EF0573
:1021B0008093EE0515CF1092F00512CFE8E1F0E024
:1021C000F093E705E093E605B092E905A092E805F3
:1021D0008091F005882309F451C08AE295E00E94BD
:1021E000D6090E9405072DE030E049E050E06AE0A2
:1021F00070E086E090E00E94380726E030E04DE095
:1022000050E06DE070E089E090E00E9438071092A5
:10221000E7051092E6059092E9058092E80588E7C7
:1022200095E00E94D60984E00E94DC06882309F428
:10223000D7CE8091F1059091F20501969093F20529
:102240008093F105823191050CF4DAC06091EE05BE
:102250007091EF058091EC059091ED058617970739
:1022600044F47093ED056093EC0584E690E00E94E1
:1022700021123092F4052092F305B2CE809108012C
:10228000883509F04CC083E395E00E94D6090E948E
:1022900005072EE030E04EE050E066E070E086E0BA
:1022A00090E00E9438072EE030E046E050E066E023
:1022B00070E08EE090E00E9438071092E7051092DF
:1022C000E60586E190E09093E9058093E80585E4D2
:1022D00095E00E94D6091092E7051092E60582E289
:1022E00090E09093E9058093E805809101018134A5
:1022F00021F485E595E00E94D609809101018234A0
:1023000021F48FE595E00E94D60980910101833484
:1023100009F07DCF8CE695E00E94D60978CF8EE358
:1023200095E0B3CF1093E9050093E80584E895E0C4
:102330000E94D6091092E7051092E60582E190E02E
:102340009093E9058093E80583E995E00E94D6091A
:102350008091EE059091EF050E94E80980EA95E0F2
:102360000E94D60982E190E00E94E8091092E705F8
:102370001092E6057092E9056092E80582EA95E020
:102380000E94D6098091EC059091ED050E94E80924
:1023900080EA95E00E94D60982E190E00E94E80977
:1023A0008091EE059091EF05429761F41092E70558
:1023B0001092E6055092E9054092E8058DEA95E015
:1023C0000E94D6091092E7051092E605E6E3F0E0D8
:1023D000F093E905E093E8058CEB95E00E94D609BF
:1023E00088E00E94DC06882309F4FACD1092F205F9
:1023F0001092F1051092EF051092EE0590E080E04A
:102400000E9432081092F4051092F305E9CDF99973
:10241000FECF92BD81BDF89A992780B50895262FE9
:10242000F999FECF92BD81BDF89A019700B40216CA
:1024300039F01FBA20BD0FB6F894FA9AF99A0FBE78
:102440000895262FF999FECF1FBA92BD81BD20BDF8
:102450000FB6F894FA9AF99A0FBE01960895052ED0
:1024600097FB1EF400940E94461257FD07D00E946D
:102470004E1207FC03D04EF40C9446125095409532
:10248000309521953F4F4F4F5F4F08959095809520
:10249000709561957F4F8F4F9F4F0895A1E21A2E3F
:1024A000AA1BBB1BFD010DC0AA1FBB1FEE1FFF1FF8
:1024B000A217B307E407F50720F0A21BB30BE40B48
:1024C000F50B661F771F881F991F1A9469F760958F
:1024D0007095809590959B01AC01BD01CF01089549
:1024E000A29FB001B39FC001A39F700D811D112455
:1024F000911DB29F700D811D1124911D089597FBB0
:10250000072E16F4009407D077FD09D00E94991287
:1025100007FC05D03EF4909581959F4F08957095E6
:1025200061957F4F0895EE0FFF1F0590F491E02D08
:102530000994AA1BBB1B51E107C0AA1FBB1FA6170A
:10254000B70710F0A61BB70B881F991F5A95A9F75C
:0E25500080959095BC01CD010895F894FFCFC1
:10255E001020AC05AC05AC05202C01AC05FFFFFF2F
:10256E00FF00E100000000000000C18081000000BB
:10257E00000000000D0461052E04230474043204CF
:10258E00500400000000BC07200585098409466937
:10259E0072737420697320746F206C617374206180
:1025AE007320626567696E6E696E67206973207449
:1025BE006F3F005E20656E7472616E6365003E2033
:1025CE006C617374007620656E6400446972747970
:1025DE0020697320746F20636C65616E20617320B7
:1025EE00696E746572657374656420697320746FA7
:1025FE00203F005E20626F726564003E206365724C
:10260E007461696E00762066756E6E790048616938
:10261E007220697320746F20686561642061732075
:10262E006C65617665732061726520746F20203F42
:10263E00005E2067726F77003E20677265656E00E0
:10264E007620747265650046696E676572206973DF
:10265E0020746F2068616E6420617320746F652032
:10266E00697320746F203F005E20666F6F74003EAA
:10267E00206E61696C007620736B696E00456C6527
:10268E007661746F7220697320746F206C69667442
:10269E002061207363616C6520697320746F203F25
:1026AE00005E20706F756E6473003E206D6163680E
:1026BE00696E650076207765696768004465736B9F
:1026CE0020697320746F20636861697220617320C2
:1026DE006A61636B657420697320746F203F005EBE
:1026EE0020746965003E20746F72736F00762070DF
:1026FE00616E74730042696C6C2069732074616C36
:10270E006C6572207468616E20496E677269642010
:10271E00496E677269642069732074616C6C6572AE
:10272E00207468616E20436861726C657320436823
:10273E0061726C65732069732074616C6C657220B4
:10274E007468616E2042696C6C20696620746865DD
:10275E002066697273742074776F20737461746568
:10276E006D656E7473206172652074727565207468
:10277E00686520746869726420697320203F005E6A
:10278E002074727565003E2066616C73650076205C
:10279E00756E6365727461696E00476572616C6413
:1027AE002068617320626C6F6E6465206861697267
:1027BE0020537573616E2068617320626C6F6E6456
:1027CE006520686169722E20416C6C2074686520EA
:1027DE006B69647320696E2047656E6572616C2744
:1027EE007320636C617373206861766520626C6F11
:1027FE006E646520686169722E2049662074686572
:10280E002066697273742074776F207374617465B7
:10281E006D656E74732061726520747275652074B7
:10282E0068652074686972642069732E2020203FC9
:10283E0000576869636820776F726420646F6573F0
:10284E00206E6F742062656C6F6E67207769746896
:10285E0020746865206F7468657273005E2052750F
:10286E006E003E204C656170007620736974005EC8
:10287E002045726173657220003E204D61726B655A
:10288E007200762070656E005E204561727468007D
:10289E003E204D6F6F6E00762076656E757300501C
:1028AE0072696E636970616C206D6F7374206E65F2
:1028BE0061726C79206D65616E7320005E207363AA
:1028CE00686F6F6C206C6561646572003E20656C8C
:1028DE006563746564206F66666963616C0076205B
:1028EE0072756C657200436F6E746D657074206DD9
:1028FE006F7374206E6561726C79206D65616E7395
:10290E0020005E20706173736F696E003E206861F7
:10291E0074726564007620636F6E667573696F6E90
:10292E0000416273757264206D6F7374206E656101
:10293E00726C79206D65616E7320005E20636F6E20
:10294E0076696E63696E67003E2073696C6C790000
:10295E0076207765616B00423A20536565204368A7
:10296E006F696365730053656C65637420796F7569
:10297E007220616E737765723A00434F525245432F
:10298E0054210054494D452753205550210057528C
:10299E004F4E472100436F727265637420746172EB
:1029AE006765743A00555020427574746F6E00520C
:1029BE004947485420427574746F6E00444F574E09
:1029CE0020427574746F6E00423A20436F6E7469C4
:1029DE006E7565005155495A2046494E4953484532
:1029EE00442100596F75722053636F72653A20004F
:1029FE002F0048492D53434F52453A20005045521F
:102A0E004645435420425241494E2100413A2052FC
:082A1E0065737461727400001D
:00000001FF
